:10000000A605040000000000000000000000000041
:1000100000000000000000000000000000000000E0
:1000200000000000000000000000000000000000D0
:1000300000000000000000000000000000000000C0
:1000400000000000000000000000000000000000B0
:1000500000000000000000000000000000000000A0
:100060000000000000000000000000000000000090
:100070000000000000000000000000000000000080
:100080000000000000000000000000000000000070
:100090000000000000000000000000000000000060
:1000A0000000000000000000000000000000000050
:1000B0000000000000000000000000000000000040
:1000C0000000000000000000000000000000000030
:1000D0000000000000000000000000000000000020
:1000E0000000000000000000000000000000000010
:1000F0000000000000000000000000000000000000
:1001000000000000000000000000000000000000EF
:1001100000000000000000000000000000000000DF
:1001200000000000000000000000000000000000CF
:1001300000000000000000000000000000000000BF
:1001400000000000000000000000000000000000AF
:10015000000000000000000000000000000000009F
:10016000000000000000000000000000000000008F
:10017000000000000000000000000000000000007F
:10018000000000000000000000000000000000006F
:10019000000000000000000000000000000000005F
:1001A000000000000000000000000000000000004F
:1001B000000000000000000000000000000000003F
:1001C000000000000000000000000000000000002F
:1001D000000000000000000000000000000000001F
:1001E000000000000000000000000000000000000F
:1001F00000000000000000000000000000000000FF
:100B4C00AF822000F0FF200020A0B70000002000A2
:100B5C0034A0B700400020004420B7004806020033
:100B6C000000000052060200000000008A1F7800FE
:100B7C008B1F78008C1F7800B0FF2F00A8A2B70045
:100B8C00C0002000C6A2B700CA22EF0070FF2F00E1
:100B9C00DEA2B700E222EF00FDFE07000A58220099
:100BAC000B0020008DFE070074FF07001AC0B30075
:100BBC003CFF0700CAC0B3003AFF070028FF07003C
:100BCC000C8020004B0020001A002000AFFF070013
:100BDC002A0020009EFF0700A04088008000EB0048
:100BEC00420620000300200005FE0700F2FF200053
:100BFC00030020000002EB000AFE07000041880001
:100C0C008B81200000057800EDFE07008A81200012
:100C1C0059FE0700B040880000067800BB00200099
:100C2C001A00200099FF07005AC2B300BBFD070051
:100C3C000AC2B300B9FD07002B822000AA40800035
:100C4C00BEFD07002A822000A5FE0700B5FE0700A6
:100C5C00DFFF37004F067800CF0578004F0578008E
:040C6C00FFFF37004F
:10079C000000FA00E052200040408800000E2000CB
:1007AC00A0A2B700A222EF00F0F32100A4A2B70090
:1007BC00AA22EF00A1E2A8000080FA0000000600C7
:1005E8000800FA00A013200090408800F0FF2F00B8
:1005F80080408800F0FF2F0070408800F0FF2F0037
:10060800604088000C22EF00000028000EA2B7000E
:1006180079FF0700823E20000300200079FF0700D1
:100628000002BE0072FF07004100DE0064004000C7
:100638000A01BE000000E900030035000201D000F5
:100648008381D200FBFF3700020798001307980048
:10065800849FBE000400BE000002EB009BFF070061
:100668004F02BE0020079800310798000400BE0022
:100678000E0190009E0190000002EB006AFF070047
:100688008001780001027800600047005001D10025
:10069800C080D300640047003008E1002090E100EA
:1006A8000400310061804100E0004A000001BE0002
:1006B80002003700030178008401780061005100CE
:1006C800E0805900A01088000E22A9000DE2A800C1
:1006D8000F42A8003EFF07003DFF07000080FA0018
:0406E8000000060008
:0C04000000E224000100200000000600C3
:0803F800400020000000060097
:1003D80038002000A7B028000E20ED00FEFF3A00EC
:1003E8001020ED00FCFF3A000000000000000600AD
:10040C000000FA00020AB800500088000200B80090
:10041C0081004200032AB800810042000080FA00EB
:04042C0000000600C6
:1004D4000000FA0002000700BE0204000000000051
:1004E4000800E20002003A001000070000000600C5
:1004F400811F78000200E20002003D00600010004D
:10050400E08018000600E20002003D0060011100D6
:10051400E0811900050007004F00E00002003B00E5
:1005240060001000E08018000000060002000700D0
:100534000480BE00000006006022B800060220000D
:100544000000D0008180D2000482D2008582D200D3
:100554000000A8000202520083825A0003003B00FC
:100564000202420083824A000000A1000603E9005F
:10057400F3FF3A00000006000080FA0000000600C5
:100430000000FA000200070066020400000000004D
:100440000800E20002003A00100007000000060069
:10045000839F68000200E20002003D00600010007F
:10046000E08018000600E20002003D00600111007B
:10047000E0811900050007004F00E00002003B008A
:1004800060001000E0801800000006006022B80044
:10049000060220000000D0008180D2000482D20039
:1004A0008582D2000000A8000202520083825A0016
:1004B00003003B000202420083824A000000A100C8
:1004C0000603E900F3FF3A00000006000080FA008E
:0404D0000000060022
:100988000000FA0028FE070027FE0700C622A9007B
:10099800C602A900C682A900C6A2A900C6C2A900AB
:1009A800C6E2A900CA22A900CA02A900CAE2A9008F
:1009B800CAC2A900CAA2A900CA82A900CAA2A800DC
:1009C800CA82A8001DFE070011FE07001BFE0700D3
:1009D8000FFE070019FE07000DFE0700CA82A900D6
:1009E80016FE07000AFE070014FE0700CAA2A900A7
:1009F800CAE2A80011FE070005FE0700CAE2A90026
:100A0800CA82A8000DFE0700CA82A9000BFE0700D3
:100A1800FFFD070009FE0700CA82A80007FE0700BD
:100A2800FBFD0700CA82A90004FE0700CAE2A8006D
:100A3800CAC2A800CAA2A800CA82A800FFFD07006F
:100A4800F3FD0700A08020001000A0000080FA003D
:040A58000000060094
:10023000574123000E20ED00FEFF3A0000000000B1
:0402400000000600B4
:100244000000FA00CA22A800ECFF0700CA22A90095
:0C025400EAFF07000080FA00000006002E
:1002000000000000000000000000000000000000EE
:080210000000000000000600E0
:10021800E73C22000E20ED00FEFF3A00000000003F
:080228000000000000000600C8
:1008B0000000FA008A80FB0002E0AE00CAE2A90054
:1008C00002E0AF00CAE2A80002C0AE00CAC2A9009E
:1008D00002C0AF00CAC2A80002A0AE00CAA2A9000E
:1008E00002A0AF00CAA2A8000280AE00CA82A9007E
:1008F0000280AF00CA82A800A08020001000A600DD
:10090000CA02A8001000A700CA02A9004DFE0700F5
:100910000260AE00CAE2A9000260AF00CAE2A8000D
:100920000240AE00CAC2A9000240AF00CAC2A8007D
:100930000220AE00CAA2A9000220AF00CAA2A800ED
:100940000200AE00CA82A9000200AF00CA82A8005D
:10095000A08020001000A600CA02A8001000A70076
:10096000CA02A90037FE0700A08020001000A600E0
:100970000200370028FE07000100370038FE07009C
:080980000080FA0000000600EF
:10026000370520000E20ED00FEFF3A0000000000E0
:040270000000060084
:10086C008A1F78000AC4B3000E0007000420EF00B2
:10087C006714E10007003E008280FB0080632800C3
:10088C008100400011457800A4FE07000460EC00D4
:10089C00F7FF37002AC0B300020007004F057800AD
:0408AC000000060042
:100328000000FA00A08020001000A1005E01070074
:10033800A08020001000A0000080FA000000060045
:100A98000000FA008A1F78000A0037000A082000C0
:100AA800110037000A0C20000F0037004A09200007
:100AB8000D0037004A0D20000B0037000A082000FF
:100AC800090037006150E100F4FF32006250E10094
:100AD800F4FF32006350E100F4FF32006450E1009B
:100AE800F4FF3200F5FF3700618055000000450033
:100AF80000057800004578006BFF0700A080200003
:100B08001000A1000420EF00020046001004E000DD
:100B180007003200020046008A1F7800104578005E
:100B2800FFFD07004F0578000420EC00F6FF3700B2
:100B3800A08020001000A0004F0578000080FA0077
:040B480000000600A3
:100A5C000000FA00100020000A00DD008080EA008F
:100A6C00802A2000108860003A158800A022A80077
:100A7C00A002AF0001003700FDFF3700A002A90063
:0C0A8C008082BF000080FA00000006001D
:1007CC000000FA008A1F78000820EF000A00780069
:1007DC006050E10003003D00140020006000150093
:1007EC000000370000057800D4FE070063002000ED
:1007FC00040178006018E100060036008380450093
:10080C006180510000804500904878000620ED0082
:10081C00F8FF370000C2B300804D78000400E200FE
:10082C000C0032000420EF0002804500904078005C
:10083C0000C2B300000CE10002003A000420EC00FE
:10084C00F9FF37006100510080804500D0C2B30031
:10085C00804878004F0578000080FA000000060000
:100348000200FA000420EF006514E1000600310005
:100358000280FB008080450000C2B300804878001E
:100368000460EC00F8FF37000280FB008080450045
:100378000020EF0080487800E14151000380FB0035
:100388000080450000079800A20020001100090025
:100398000285D80000032000808040000E009000F5
:1003A80001487800A2002000110009000285D80049
:1003B800000578006000E10001003A000200370003
:1003C8000660ED00EDFF37000080FA00000006002F
:100584000000FA000820EF000A0178008A017800D0
:1005940001003700810178009240780000C2B30066
:1005A400000CE10004003A000800E20002003A00F6
:1005B400830078000300370014002000924978007B
:1005C400E1804100020078000420EC001040780033
:1005D4006004E100EFFF3A000A0078000080FA00AE
:0405E400000006000D
:1006EC000000FA000220EF001A4078006004E100DC
:1006FC000A0032008A1F78000085FB00DAFE070032
:10070C004F05780061C04000804078000080FB00FD
:10071C000000450010407800F4FF37000080FA001C
:04072C0000000600C3
:100274000000FA000F02AF0001003700FDFF370055
:0C0284008A1088000080FA0000000600CC
:100730008A1F78008B1F78008C1F7800A0408000F3
:100740004800DE00610140001000200080017800B8
:100750007018E1000D003C000218E10005003C00AB
:100760001820EF00830578002A002000C8FE07004B
:10077000040037000CC2B300830578002A00200073
:10078000C3FE07000620EC00F1FF37004F0678009B
:0C079000CF0578004F057800000006003F
:100290000000FA008A1F78000A0037000A082000D0
:1002A000110037000A0C20000F0037004A09200017
:1002B0000D0037004A0D20000B0037000A0820000F
:1002C000090037006150E100F4FF32006250E100A4
:1002D000F4FF32006350E100F4FF32006450E100AB
:1002E000F4FF3200F5FF37006180550080004500C3
:1002F00001057800A08020001000A00001457800D2
:100300006B010700A08020001000A1000C457800C0
:1003100067010700A08020001000A0004F057800B2
:080320000080FA000000060055
:100C90000A8020000B002000140009000B1D7800C2
:040CA000000006004A
:100CA400018020000064280002000900B0187800C8
:080CB400B058780000000600B2
:100C70000E0E00000E0E00000E0E00000E0E000004
:100C80004C650000766500006C3A00000000000032
:0200000401F009
:1C000000028300003F000000A38700000F3100000F3300000700000003C00000AA
:00000001FF
